:100000000C9434000C943E000C943E000C943E0082
:100010000C943E000C943E000C943E000C943E0068
:100020000C943E000C943E000C943E000C943E0058
:100030000C943E000C943E000C943E000C943E0048
:100040000C943E000C943E000C943E000C943E0038
:100050000C943E000C943E000C943E000C943E0028
:100060000C943E000C943E0011241FBECFEFD4E050
:10007000DEBFCDBF0E94B6020C941F050C94000099
:1000800014B81AB817B815B81BB818B88FEF8AB9D2
:100090008FE384B983E087B93C9A3D9A3B9A0895EF
:1000A0008BB9892F8F7385B9929596959695937094
:1000B000986398B908950F931F93449A459AB0E0B6
:1000C00050E358B932E000EF0E947A0058E358B983
:1000D00031E00AE00E947A0058E258B931E002E0CB
:1000E0000E947A0058E358B931E001E20E947A0098
:1000F0000C945F00132FA0E0439A459827E12A95BE
:10010000F1F7459A000026E02A95F1F7B5B92B2FB3
:100110002695269526952695269526952370252B9A
:1001200028B9ABB9A395ABB9A395ABB9A395ABB9B6
:10013000A395ABB9A395ABB9A395ABB9A395ABB94F
:10014000A395ABB9A395ABB9A395ABB9A395ABB93F
:10015000A395ABB9A395ABB9A395ABB9A395ABB92F
:10016000A395ABB9A395ABB9A395ABB9A395ABB91F
:10051000A395ABB9A395ABB9439A1A9521F4B395BA
:100520000A9599F408950000000000000000000002
:1005300000000000000000000000000000000000BB
:100540000000000000000000D6CD00000000000008
:10055000000000000000000000000000000000009B
:1005600000000000C7CD1F910F9108950F931F93B6
:1005700014B81AB817B815B81BB818B88FEF8AB9DD
:100580008FE384B983E087B93C9A3D9A3B9AF8940B
:10059000449A459AB0E050E358B932E000EF0E9427
:1005A000E50258E358B931E00AE00E94E50258E25A
:1005B00058B931E002E00E94E50258E358B931E051
:1005C00001E20E94E5020C94CA02132FA0E0439AB4
:1005D000459827E12A95F1F7459A000026E02A95EB
:1005E000F1F7B5B92B2F26952695269526952695B4
:1005F00026952370252B28B9ABB9A395ABB9A39544
:10060000ABB9A395ABB9A395ABB9A395ABB9A3957A
:10061000ABB9A395ABB9A395ABB9A395ABB9A3956A
:10062000ABB9A395ABB9A395ABB9A395ABB9A3955A
:10063000ABB9A395ABB9A395ABB9A395ABB9A3954A
:1009E000ABB9A395ABB9A395ABB9A395ABB9439AF2
:1009F0001A9521F4B3950A9599F408950000000022
:100A000000000000000000000000000000000000E6
:100A10000000000000000000000000000000D6CD33
:100A200000000000000000000000000000000000C6
:100A300000000000000000000000C7CDA9CDF89420
:020A4000FFCFE6
:00000001FF
