:100000000C9412020C942F020C942F020C942F02C9
:100010000C942F020C942F020C942F020C942F029C
:100020000C942F020C942F020C942F020C942F028C
:100030000C942F020C942F020C942F020C942F027C
:100040000C942F020C942F020C942F020C942F026C
:100050000C942F0253442D43617264206973206F06
:100060006B2E000053442D436172643A2053504973
:10007000206572726F722E000053442D43617264CA
:100080003A204E6F20726573706F6E73652E00009C
:1000900053442D436172643A2053697A6520657236
:1000A000726F722E00004641543A2046415431325C
:1000B000202D206572726F722E00004641543A2046
:1000C0004641543332202D206572726F722E00002B
:1000D0004641543A204641543136202D206F6B2E34
:1000E00000004641543A204E6F2046696C652E0050
:1000F000004641543A20466F756E642046696C652F
:100100002E0000000000000000004F00000007006B
:100110000700147F147F14242A7F2A1223130864F3
:100120006236495522400005030000001C224100B0
:100130000041221C0014083E081408083E0808006C
:100140005030000008080808080060600000201017
:100150000804023E5149453E00427F400042615141
:1001600049462141454B311814127F10274545451A
:10017000393C4A4949300171090503364949493634
:10018000064949291E003636000000563600000890
:100190001422410014141414140041221408020102
:1001A000510906324971413E7E1111117E7F494944
:1001B00049363E414141227F4141221C7F49494904
:1001C000417F090909013E4149493A7F0808087FF2
:1001D00000417F41002040413F017F081422417FC0
:1001E000404040407F020C027F7F0408107F3E4168
:1001F00041413E7F090909063E4151215E7F0919AF
:100200002946464949493101017F01013F404040AB
:100210003F1F2040201F3F4030403F6314081463BD
:1002200007087008076151494543007F41410002BA
:10023000040810200041417F0004020102044040F4
:10024000404040000102040020545454787F484448
:1002500044383844444420384444487F3854545443
:1002600018087E0901020C5252523E7F080404789D
:1002700000447D40002040443D007F1028440000A1
:10028000417F40007C041804787C080404783844DA
:100290004444387C14141408081414187C7C080492
:1002A00004084854545420043F4440203C4040201B
:1002B0007C1C2040201C3C4030403C4428102844FA
:1002C0000C5050503C4464544C44000836410000EB
:1002D000007F000000413608000201020201000018
:1002E0000000007E1111117E7F494949337F494941
:1002F00049367F01010103E0514F41FF7F494949E0
:100300004177087F087741494949367F1008047FC3
:100310007C2112097C7F0814224120413F017F7F0C
:10032000020C027F7F0808087F3E4141413E7F0169
:1003300001017F7F090909063E4141412201017FF8
:10034000010147281008071C227F221C631408148F
:10035000637F404040FF070808087F7F407F407F61
:100360007F407F40FF017F4848307F4830007F005A
:100370007F484830224149493E7F083E413E462958
:1003800019097F20545454783C4A4A49317C5454CA
:1003900028007C0404040CE0544C44FC38545454AD
:1003A000186C107C106C44445454287C2010087C39
:1003B0007C4122117C7C1028440020443C047C7C3D
:1003C0000810087C7C1010107C38444444387C04AD
:1003D00004047C7C14141408384444442004047C31
:1003E00004040C5050503C3048FC4830442810283D
:1003F000447C404040FC0C1010107C7C407C407CD5
:100400007C407C40FC047C5050207C5050207C7C04
:100410005050200028445454387C10384438085434
:1004200034147C0011241FBECFE5D8E0DEBFCDBF61
:1004300010E0A0E6B0E0E4E4F4E202C005900D9222
:10044000A636B107D9F712E0A6E6B0E001C01D92CA
:10045000AF3AB107E1F70E9440100C9420120C94BF
:1004600000008FB9779BFECF8FB108950F93DF9374
:10047000CF9300D000D00F92CDB7DEB789836A83C7
:100480004B832C830D83FE0131969E012A5F3F4FE3
:1004900080818FB9779BFECF8FB13196E217F3073A
:1004A000B9F785E98FB9779BFECF8FB120E030E0B7
:1004B0009FEF9FB9779BFECF8FB187FF07C02F5F5C
:1004C0003F4F8FEF2F3F3807A1F78FEF0F900F901F
:1004D0000F900F900F90CF91DF910F9108950F9390
:1004E0001F93CF93DF93EC016F5F641BA0E0B0E03C
:1004F00030E00FE010E01EC0232F240F822F8695DE
:1005000086958695F801E81BF109EC0FFD1F8081A7
:1005100090E0277002C0959587952A95E2F7817043
:100520009070032E02C0880F991F0A94E2F7A82B3F
:10053000B92B3F5F361700F3CD01DF91CF911F91AB
:100540000F910895CF92DF92EF92FF920F931F9336
:10055000DF93CF93CDB7DEB760970FB6F894DEBFC9
:100560000FBECDBF89E460E040E020E000E00E94E3
:1005700036028F3F09F459C020E030E04FEF95E09C
:100580004FB9779BFECF8FB18E3F51F0892F8A955F
:10059000F1F72F5F3F4F8FEF2F3F380789F745C0A7
:1005A000FE0131969FEF9E012F5E3F4F9FB9779BD3
:1005B000FECF8FB18193E217F307C1F780E090E09F
:1005C0002FEF2FB9779BFECF3FB101968F3F91055B
:1005D000C1F78E010F5F1F4FC80169E44EE30E940F
:1005E0006F026C01C80161E34FE20E946F02EE24CA
:1005F000FF240894C11CD11CE11CF11C029604C00C
:10060000CC0CDD1CEE1CFF1C8A95D2F7C80163E5FB
:1006100040E50E946F02A701960104C0220F331F1C
:10062000441F551F8A95D2F704C02FEF3FEF40E0DB
:1006300050E0B901CA0160960FB6F894DEBF0FBE54
:10064000CDBFCF91DF911F910F91FF90EF90DF9081
:10065000CF900895FF920F931F93CF93DF93BC9A8F
:10066000BD9ABF9ABE9888EE93E020E931E0F90187
:100670003197F1F70197D9F7C49A88E893E120E917
:1006800031E0F9013197F1F70197D9F7C59A20E0E8
:1006900040EA5FE0C79ACA010197F1F7C798CA011B
:1006A0000197F1F72F5F2A3FA9F7C49880E58DB92C
:1006B00081E08EB988EE93E020E931E0F9013197CD
:1006C000F1F70197D9F780E460E040E020E000E036
:1006D0000E943602813011F081E02BC08FEF8FB97C
:1006E000779BFECF8FB1C0E0D0E0FF24FA9415E0F5
:1006F00081E460E040E020E000E00E943602FFB8C4
:10070000779BFECF9FB1882351F0812F8A95F1F717
:1007100021962FEFCF3FD20759F782E00AC00E94FF
:10072000A2026F5F7F4F8040904011F080E001C0D7
:1007300083E0DF91CF911F910F91FF9008956F9209
:100740007F928F929F92AF92BF92CF92DF92EF9261
:10075000FF920F931F937B018C01292F332744278E
:1007600055275801CC24DD246F2C702E812E99241E
:1007700081E5622F4A2D262D0E2D0E9436028823F8
:10078000D9F48FEF8FB9779BFECF8FB120E030E0A7
:100790009FEF9FB9779BFECF8FB18E3F39F02F5FD0
:1007A0003F4F8FEF2F3F3807A1F706C0109261002F
:1007B0001092600081E001C080E01F910F91FF90D6
:1007C000EF90DF90CF90BF90AF909F908F907F90F1
:1007D0006F900895FC0180916000909161008050BD
:1007E000924010F080E008958FEF8FB9779BFECF95
:1007F0008FB1808380916000909161000196909309
:100800006100809360008050924011F081E0089573
:100810008FEF8FB9779BFECF8FB18FEF8FB9779B1B
:10082000FECF8FB181E008956F927F928F929F9259
:10083000AF92BF92CF92DF92EF92FF920F931F93EE
:10084000CF93DF937B018C01EA01292F33274427C3
:1008500055275C01CC24DD24672E782E892E99241F
:1008600081E5622F4A2D262D0E2D0E943602882307
:1008700089F58FEF8FB9779BFECF8FB120E030E005
:100880009FEF9FB9779BFECF8FB18E3F39F02F5FDF
:100890003F4F8FEF2F3F3807A1F71CC020E030E01B
:1008A0009FEF9FB9779BFECF8FB188832F5F3F4F1C
:1008B00082E02030380711F02196F3CF8FEF8FB907
:1008C000779BFECF8FB18FEF8FB9779BFECF8FB124
:1008D00081E001C080E0DF91CF911F910F91FF90E7
:1008E000EF90DF90CF90BF90AF909F908F907F90D0
:1008F0006F9008956F927F928F929F92AF92BF9266
:10090000CF92DF92EF92FF920F931F93CF93DF93DB
:100910007B018C01EA01292F3327442755275801F1
:10092000CC24DD246F2C702E812E992488E5622F33
:100930004A2D262D0E2D0E943602882309F048C02C
:100940008FEF8FB9779BFECF8FB18EEF8FB9779BEB
:10095000FECF8FB120E030E088818FB9779BFECF4A
:100960008FB12F5F3F4F82E02030380711F0219682
:10097000F3CF1FB8779BFECF8FB11FB8779BFECF09
:100980008FB18FEF8FB9779BFECF8FB18570853098
:10099000F9F48FEF8FB9779BFECF8FB18FEF8FB9BF
:1009A000779BFECF8FB120E030E04FEF95E04FB95D
:1009B000779BFECF8FB18F3F11F481E00AC0892F62
:1009C0008A95F1F72F5F3F4F8FEF2F3F380779F769
:1009D00080E0DF91CF911F910F91FF90EF90DF901A
:1009E000CF90BF90AF909F908F907F906F90089521
:1009F000EF92FF920F931F937B018C018091660011
:100A000090916700A0916800B0916900E80EF91E0E
:100A10000A1F1B1FA8019701F9E0569547953795C6
:100A20002795FA95D1F78091620090916300A0918B
:100A30006400B0916500281739074A075B0781F009
:100A400020936200309363004093640050936500EC
:100A5000C801B70160707E7F4BE650E00E9414042D
:100A6000F701F170E559FF4F608170E080E090E0A0
:100A70001F910F91FF90EF900895AF92BF92CF9288
:100A8000DF92EF92FF920F931F935B016C016F5FF8
:100A90007F4F8F4F9F4F0E94F804EE24F62E072FB2
:100AA000182FC601B5010E94F8049B01AC012E2944
:100AB0003F29402B512BB901CA011F910F91FF9083
:100AC000EF90DF90CF90BF90AF9008952F923F921C
:100AD0004F925F926F927F928F929F92AF92BF924E
:100AE000CF92DF92EF92FF920F931F93CF93DF93FA
:100AF000EC018C819D81AE81BF818097A109B109F4
:100B00008C839D83AE83BF83288939894A895B8919
:100B100082179307A407B50708F0B4C0288139816C
:100B20004A815B818091AB029091AC02A091AD02B1
:100B3000B091AE02281739074A075B0709F4A4C031
:100B4000288439844A845B8480916A00813021F052
:100B5000EE24FF24870106C082017101EE0CFF1C08
:100B6000001F111F60919702709198028091990265
:100B700090919A0220917702309178024091790207
:100B800050917A020E94DF11E60EF71E081F191F0E
:100B9000C801B7010E943D057B018C01DC01CB013E
:100BA0000397A109B109855F9F4FA040B04008F0AD
:100BB0006BC08C859D85AE85BF85E816F9060A0752
:100BC0001B0729F0C701D8011C012D01BDCFD2019F
:100BD000C1010397A109B109855F9F4FA040B040B3
:100BE00008F052C02C863D864E865F8660906F026C
:100BF000709070028090710290907202A0909702A3
:100C0000B0909802C0909902D0909A028EEF9FEF18
:100C1000AFEFBFEF280E391E4A1E5B1EC201B101A5
:100C2000A40193010E94DF119B01AC0160916B0252
:100C300070916C0280916D0290916E02620F731F31
:100C4000841F951FA60195010E94DF117B018C0175
:100C5000688B798B8A8B9B8BC601B501A4019301AC
:100C60000E94DF116E0D7F1D801F911F6C8B7D8B8D
:100C70008E8B9F8B60527040804090406C837D8350
:100C80008E839F8381E001C080E0DF91CF911F912F
:100C90000F91FF90EF90DF90CF90BF90AF909F901B
:100CA0008F907F906F905F904F903F902F9008951E
:100CB000AF92BF92CF92DF92EF92FF920F931F936A
:100CC000DF93CF93CDB7DEB768970FB6F894DEBF4A
:100CD0000FBECDBFDE011196EFE7F2E088E1019093
:100CE0000D928150E1F75E010894A11CB11CC50171
:100CF0000E946605882309F46CC0CC24DD247601AB
:100D00006D817E818F8198856C0D7D1D8E1D9F1D4F
:100D10000E94F8048C2DCC2021F4603241F3653E12
:100D200031F3603220F38130A9F46D817E818F81AF
:100D300098850E94F804162F6D817E818F81988599
:100D40006F5F7F4F8F4F9F4F0E94F8041E3211F448
:100D50006E3269F60894C11CD11CE11CF11C8BE0B9
:100D6000C816D104E104F10459F644C06D817E81B6
:100D70008F819885665F7F4F8F4F9F4F0E94F80449
:100D8000162F6D817E818F819885675F7F4F8F4F92
:100D90009F4F0E94F804062F6D817E818F81988578
:100DA000685F7F4F8F4F9F4F0E94F804173409F000
:100DB0009ECF0D3409F09BCF693409F098CFAFE78F
:100DC000B2E0FE01319688E101900D928150E1F789
:100DD00081E068960FB6F894DEBF0FBECDBFCF910D
:100DE000DF911F910F91FF90EF90DF90CF90BF9018
:100DF000AF9008956D817E818F819885655F7F4F6B
:100E00008F4F9F4F0E94F80464FFB0CFD8CF6F92EE
:100E10007F928F929F92AF92BF92CF92DF92EF928A
:100E2000FF920F931F93CF93DF93EC018C819D81F1
:100E3000AE81BF818096A11DB11D8C839D83AE8341
:100E4000BF832C893D894E895F8982179307A40748
:100E5000B50708F4A9C0288139814A815B81809156
:100E6000AB029091AC02A091AD02B091AE022817F6
:100E700039074A075B0709F499C0E0916A00E1303D
:100E800021F0EE24FF24870108C0EC84FD840E8548
:100E90001F85EE0CFF1C001F111F2091770230915F
:100EA00078024091790250917A0260919702709194
:100EB00098028091990290919A02E13009F076C0EF
:100EC0000E94DF11E60EF71E081F191FC801B701A7
:100ED0000E943D059B01AC016115710581059105DD
:100EE00009F464C080919F029091A002A091A10298
:100EF000B091A2020296A11DB11D281739074A0719
:100F00005B0708F053C0283F8FEF380780E04807A1
:100F100080E0580708F04AC02C873D874E875F87DE
:100F200060906F02709070028090710290907202D7
:100F3000A0909702B0909802C0909902D0909A0227
:100F40002250304040405040CA01B901A4019301F1
:100F50000E94DF119B01AC0160916B0270916C02E9
:100F600080916D0290916E02620F731F841F951F16
:100F7000A60195010E94DF117B018C016C837D83AA
:100F80008E839F83688B798B8A8B9B8BC601B5017F
:100F9000A40193010E94DF116E0D7F1D801F911F20
:100FA0006C8B7D8B8E8B9F8B81E001C080E0DF910D
:100FB000CF911F910F91FF90EF90DF90CF90BF9056
:100FC000AF909F908F907F906F900895AF92BF9257
:100FD000CF92DF92EF92FF920F931F93DF93CF9305
:100FE000CDB7DEB768970FB6F894DEBF0FBECDBFA2
:100FF000DE011196EFE7F2E088E101900D92815059
:10100000E1F75E010894A11CB11CC5010E9407070D
:10101000882309F46CC0CC24DD2476016D817E81A7
:101020008F8198856C0D7D1D8E1D9F1D0E94F8047B
:101030008C2DCC2021F4603241F3653E31F36032D7
:1010400020F38130A9F46D817E818F8198850E9483
:10105000F804162F6D817E818F8198856F5F7F4F99
:101060008F4F9F4F0E94F8041E3211F46E3269F6C2
:101070000894C11CD11CE11CF11C8BE0C816D104E2
:10108000E104F10459F644C06D817E818F81988519
:10109000665F7F4F8F4F9F4F0E94F804162F6D8120
:1010A0007E818F819885675F7F4F8F4F9F4F0E9412
:1010B000F804062F6D817E818F819885685F7F4F50
:1010C0008F4F9F4F0E94F804173409F09ECF0D34C4
:1010D00009F09BCF693409F098CFAFE7B2E0FE0189
:1010E000319688E101900D928150E1F781E0689698
:1010F0000FB6F894DEBF0FBECDBFCF91DF911F9129
:101100000F91FF90EF90DF90CF90BF90AF90089538
:101110006D817E818F819885655F7F4F8F4F9F4F57
:101120000E94F80464FFB0CFD8CFAF92BF92CF92A5
:10113000DF92EF92FF920F931F935B016C016D5F43
:101140007F4F8F4F9F4F0E94F804EE24F62E072FFB
:10115000182FC601B5016E5F7F4F8F4F9F4F0E94C2
:10116000F804E62AF72A082B192B102F0F2DFE2C36
:10117000EE24C601B5016F5F7F4F8F4F9F4F0E94D6
:10118000F804E62AF72A082B192B102F0F2DFE2C16
:10119000EE24C601B5010E94F8049B01AC012E2982
:1011A0003F29402B512BB901CA011F910F91FF908C
:1011B000EF90DF90CF90BF90AF9008952F923F9225
:1011C0004F925F926F927F928F929F92AF92BF9257
:1011D000CF92DF92EF92FF920F931F93DF93CF9303
:1011E000CDB7DEB768970FB6F894DEBF0FBECDBFA0
:1011F0004C012B011A013901D9011C92009729F4E5
:101200005401CC24DD2476010CC080E090E020E283
:10121000F401E80FF91F208301968B309105C1F787
:10122000EFCF60918302709184028091850290914A
:1012300086026C0D7D1D8E1D9F1D0E94F8048C2D55
:10124000CC2031F4603209F48FC1653E09F48CC1C1
:10125000603208F489C18114910449F0883018F48F
:10126000F501608304C0D50111966C9320C08130D4
:10127000F1F46091830270918402809185029091D3
:1012800086020E94F804162F6091830270918402F6
:1012900080918502909186026F5F7F4F8F4F9F4FA5
:1012A0000E94F8041E3219F46E3209F05DC10894F0
:1012B000C11CD11CE11CF11C0894A11CB11CBBE099
:1012C000CB16D104E104F10409F0ABCF69C10A9651
:1012D000A11DB11DBC01CD010E94F804162F609123
:1012E0008302709184028091850290918602675FEB
:1012F0007F4F8F4F9F4F0E94F804062F609183020B
:10130000709184028091850290918602685F7F4F80
:101310008F4F9F4F0E94F804173409F025C10D34F8
:1013200009F022C1693409F01FC11EC0BC01CD0102
:101330000E94F804162F60918302709184028091BC
:101340008502909186026F5F7F4F8F4F9F4F0E9463
:10135000F8041E3231F46E3221F48FEFF3018083F2
:1013600003C081E0D3018C93609183027091840269
:1013700080918502909186026C5E7F4F8F4F9F4FC8
:101380000E943D057B018C01609183027091840273
:101390008091850290918602665E7F4F8F4F9F4FAE
:1013A0000E943D058701FF24EE24E62AF72A082B38
:1013B000192BF201E082F182028313836091830290
:1013C000709184028091850290918602645E7F4FC5
:1013D0008F4F9F4F0E949508D1016D937D938D9300
:1013E0009C9313978114910409F4C0C0CD2819F47B
:1013F0008EE2F4018087D4011C961C92DE011196C6
:10140000EFE7F2E088E101900D928150E1F7DD24F1
:101410005E010894A11CB11CC5010E9466058823C9
:1014200009F497C06D817E818F819885655F7F4FBC
:101430008F4F9F4F0E94F80470E06F707070672BA1
:1014400009F487C06D817E818F8198850E94F804A0
:10145000C62EEE24FF24870125C06D817E818F81F9
:1014600098856F5F7F4F8F4F9F4F6E0D7F1D801F41
:10147000911F0E94F804F401ED0DF11D6083D394D7
:1014800082E090E0A0E0B0E0E80EF91E0A1F1B1F0A
:101490009AE0E916F1040105110521F4EE24FF2478
:1014A00087013CC0A0E1AD15C0F6F8CF6D817E810B
:1014B0008F819885625F7F4F8F4F9F4F6E0D7F1D8D
:1014C000801F911F0E94F804F401ED0DF11D60834F
:1014D000D39482E090E0A0E0B0E0E80EF91E0A1F8D
:1014E0001B1F9CE0E916F10401051105B9F4A0E108
:1014F000AD1508F474C06D817E818F819885645E1E
:101500007F4F8F4F9F4F0E94F804F401ED0DF11DA6
:1015100060831D2D1F5F113129F461C0B0E1BD153D
:1015200028F65DC06D817E818F819885625E7F4FD8
:101530008F4F9F4F0E94F804F401E10FF11D60836B
:10154000D12ED394E1E1DE1609F449C0C6FE64CF82
:1015500006C0F0E1FD1508F442C0DD2039F08D0C25
:10156000911CD4011C9202C080E001C081E0689609
:101570000FB6F894DEBF0FBECDBFCF91DF911F91A4
:101580000F91FF90EF90DF90CF90BF90AF909F9022
:101590008F907F906F905F904F903F902F90089525
:1015A00060918302709184028091850290918602FD
:1015B000655F7F4F8F4F9F4F0E94F80470E08091CE
:1015C000830290918402A0918502B091860250E13D
:1015D000C52ED12CC622D72264FF79CEA7CE40E1FA
:1015E000D42EBDCFAF92BF92CF92DF92EF92FF92F7
:1015F0000F931F93DF93CF93CDB7DEB729970FB625
:10160000F894DEBF0FBECDBFE0907F02F090800265
:101610000091810210918202E0928302F092840292
:101620000093850210938602809187029091880230
:10163000A0918902B0918A0280938B0290938C02D0
:10164000A0938D02B0938E02E0928F02F0929002EE
:1016500000939102109392028091AB029091AC02A0
:10166000A091AD02B091AE02A0909702B090980206
:10167000C0909902D0909A02E816F9060A071B0753
:1016800049F020916F0230917002409171025091A7
:10169000720208C02091A3023091A4024091A502D9
:1016A0005091A602C601B5010E94DF11E60EF71E99
:1016B000081F191FE0929302F09294020093950282
:1016C00010939602A2E0CA2ED12CCC0EDD1EF6E0BD
:1016D000EF2EF12CEC0EFD1E8E010F5F1F4F80E0F0
:1016E00090E0B601A70198010E94DE08882311F05E
:1016F00081E004C00E94E607882389F729960FB687
:10170000F894DEBF0FBECDBFCF91DF911F910F9137
:10171000FF90EF90DF90CF90BF90AF9008952F9201
:101720003F924F925F926F927F928F929F92AF9271
:10173000BF92CF92DF92EF92FF920F931F931B0104
:101740002C0160909702709098028090990290907E
:101750009A026115710581059105D9F4E090AB02FB
:10176000F090AC020091AD021091AE02E0927F02C7
:10177000F092800200938102109382022091A302D2
:101780003091A4024091A5025091A602C401B30178
:1017900030C0A0906F02B0907002C0907102D090E3
:1017A00072026250704080409040A60195010E94F4
:1017B000DF119B01AC0160916B0270916C02809112
:1017C0006D0290916E02620F731F841F951FA4011A
:1017D00093010E94DF117B018C0160937F02709363
:1017E00080028093810290938202C401B301A6011A
:1017F00095010E94DF11E60EF71E081F191FE092E7
:101800009302F09294020093950210939602209214
:101810008702309288024092890250928A02209276
:101820008B0230928C0240928D0250928E028091F7
:101830007F0290918002A0918102B09182028093F8
:10184000830290938402A0938502B09386028093D2
:101850008F0290939002A0939102B09392020E9403
:10186000F20A1F910F91FF90EF90DF90CF90BF9001
:10187000AF909F908F907F906F905F904F903F9030
:101880002F9008951ABA17BA11BA14BAB89ABA9A18
:10189000B99ABB988FEF8ABB84BB11BA1BBA88BBBD
:1018A00012BA15BA0895982FB39BFECFC09A0000C4
:1018B0000000C19A8FEF81BB9BBB65BB409542BBCB
:1018C000C298C29A11BA12BAC19800000000C0981A
:1018D00008952F923F924F925F926F927F928F92D4
:1018E0009F92AF92BF92CF92DF92EF92FF920F93AF
:1018F0001F93DF93CF93CDB7DEB7A1970FB6F894C0
:10190000DEBF0FBECDBFCE010A96BE016E5F7F4F18
:10191000AE014A5F5F4F9E012F5F3F4F0E94DE087E
:10192000882309F4D5C019A218A21F8E1E8E662422
:1019300077244301C3C0A090A702B090A802C09032
:10194000A902D090AA02D401C3018A0D9B1DAC1D2F
:10195000BD1D82179307A407B50730F059016A012E
:10196000A618B708C808D9086A817B818C819D8137
:10197000625070408040904020916F023091700220
:1019800040917102509172020E94DF119B01AC01E3
:1019900060916B0270916C0280916D0290916E0269
:1019A000620F731F841F951F209197023091980238
:1019B0004091990250919A020E94DF111B012C0163
:1019C000EE24FF2487012AC0C801B701620D731DF0
:1019D000841D951D0E94F804462F8E8D68A10E94DB
:1019E000530C88A199A1019699A388A38B3F9105D7
:1019F0003CF08E8D9F8D01969F8F8E8F19A218A21D
:101A00008E8D9F8D803F910524F080EF90E09F8F19
:101A10008E8F0894E11CF11C011D111DEA14FB04BA
:101A20000C051D0588F26A0C7B1C8C1C9D1CE0912A
:101A30006A00E13021F0EE24FF24870108C0EA802B
:101A4000FB800C811D81EE0CFF1C001F111F2091DB
:101A50007702309178024091790250917A02609138
:101A60009702709198028091990290919A02E130C8
:101A700079F50E94DF11E60EF71E081F191FC80135
:101A8000B7010E943D059B01AC01611571058105FF
:101A90009105F1F080919F029091A002A091A10286
:101AA000B091A2020296A11DB11D281739074A075D
:101AB0005B0770F42A833B834C835D832E813F81D7
:101AC00048855985621673068406950608F433CF57
:101AD00080E0A1960FB6F894DEBF0FBECDBFCF91C8
:101AE000DF911F910F91FF90EF90DF90CF90BF900B
:101AF000AF909F908F907F906F905F904F903F90AE
:101B00002F9008954F925F926F927F928F929F9243
:101B1000AF92BF92CF92DF92EF92FF920F931F93FB
:101B2000CF93DF93782EC62E542E622E480187EE77
:101B3000871508F43AC0BB2415E0412EE3EFEC15FD
:101B4000A0F1F401EB0DF11D8491803270F1803928
:101B500010F4805201C08056849DE0011124CD5FB5
:101B6000DE4FEC2CDD24FE01A490172DFF24F3940E
:101B700000E08F2D8A2121F0812F6E2D452D03C08D
:101B8000812F6E2D462D0E94530C0F5F1F5F083072
:101B900011F0FF0CEECFD3942196E394F5E0DF161D
:101BA00011F786E0C80EB394C9CFDF91CF911F9192
:101BB0000F91FF90EF90DF90CF90BF90AF909F90EC
:101BC0008F907F906F905F904F9008956F927F926B
:101BD0008F929F92AF92BF92CF92DF92EF92FF923D
:101BE0000F931F938FEF9FEFAFEFBFEF80936200D4
:101BF00090936300A0936400B09365001092660018
:101C0000109267001092680010926900EE24FF2481
:101C10008701C801B7010E94F804693E11F06B3ECC
:101C2000E9F4C801B70161507E4F8F4F9F4F0E946A
:101C3000F8046A3A99F4C801B70162507E4F8F4F99
:101C40009F4F0E94F804653549F4E0926600F092D7
:101C5000670000936800109369000EC00894E11CAF
:101C6000F11C011D111D20E0E21620E0F20620E02B
:101C7000020722E0120769F68FEF9FEFAFEFBFEF89
:101C80008093620090936300A0936400B09365001A
:101C90006DE070E080E090E00E94F80460936F02D5
:101CA0007093700280937102909372026BE070E007
:101CB00080E090E00E943D05609397027093980247
:101CC0008093990290939A026EE070E080E090E039
:101CD0000E943D05609377027093780280937902A9
:101CE00090937A0261E170E080E090E00E943D050F
:101CF0007B018C01209197023091980240919902CA
:101D000050919A02CA01B9016150704080409040E0
:101D1000E5E0EE0CFF1C001F111FEA95D1F76E0DD8
:101D20007F1D801F911F0E94FE11CA01B9010E94F0
:101D300026110E94E7100E94FA106093A30270938C
:101D4000A4028093A5029093A60266E170E080E071
:101D500090E00E943D0560937B0270937C0280932B
:101D60007D0290937E02611571058105910571F4E4
:101D700064E270E080E090E00E94950860937B024E
:101D800070937C0280937D0290937E0263E170E009
:101D900080E090E00E943D055B016C0161157105DA
:101DA0008105910541F460E270E080E090E00E94DE
:101DB00095085B016C01E0907702F0907802009149
:101DC000790210917A0260E170E080E090E00E9478
:101DD000F8042091A3023091A4024091A5025091F1
:101DE000A602350146016E187F08800A910A840117
:101DF0007301E21AF30A040B150B20917B02309158
:101E00007C0240917D0250917E020E94DF11E61A11
:101E1000F70A080B190BE0929B02F0929C020093C8
:101E20009D0210939E0220916F02309170024091AA
:101E3000710250917202C801B7010E94FE11CA01DD
:101E4000B9010E9426110E9463110E94FA1060934A
:101E50009F027093A0028093A1029093A202E0904F
:101E60007702F09078020091790210917A0260E195
:101E700070E080E090E00E94F8042091A30230918D
:101E8000A4024091A5025091A602E20EF31E041F87
:101E9000151F20917B0230917C0240917D02509170
:101EA0007E020E94DF11E60EF71E081F191FE09246
:101EB0006B02F0926C0200936D0210936E0280919F
:101EC0009F029091A002A091A102B091A202853F31
:101ED0002FE0920720E0A20720E0B20760F480E53F
:101EE00093EC20E931E0F9013197F1F70197D9F747
:101EF00010926A001CC0855F9F4FA040B04058F40C
:101F000080E29EE420E931E0F9013197F1F7019791
:101F1000D9F781E00AC080E593EC20E931E0F901CE
:101F20003197F1F70197D9F782E080936A008091A9
:101F30006A00882311F481E096C0823009F493C0CE
:101F4000A0907702B0907802C0907902D0907A0287
:101F500060E170E080E090E00E94F80420917B0254
:101F600030917C0240917D0250917E020E94DF11EF
:101F70007B018C01EA0CFB1C0C1D1D1DE092730201
:101F8000F09274020093750210937602A09097026B
:101F9000B0909802C0909902D0909A0220916F025E
:101FA000309170024091710250917202C601B501E8
:101FB0000E94DF116093A7027093A8028093A90288
:101FC0009093AA02C801B701A60195010E94DF11F2
:101FD0007B018C016093AB027093AC028093AD02E5
:101FE0009093AE0260937F0270938002809381028F
:101FF000909382026093830270938402809385029F
:1020000090938602109287021092880210928902A1
:1020100010928A0210928B0210928C0210928D0202
:1020200010928E022091A3023091A4024091A50249
:102030005091A602C601B5010E94DF116E0D7F1DF1
:10204000801F911F60939302709394028093950276
:1020500090939602E0928F02F09290020093910288
:102060001093920280E01F910F91FF90EF90DF900C
:10207000CF90BF90AF909F908F907F906F9008957A
:102080000F931F930E94420CC198C098C29A00E01F
:102090000BC0812F602F40E00E94530C1F5F1F3F39
:1020A000C1F70F5F0F3F11F010E0F3CF80E593EC25
:1020B00020E931E0F9013197F1F70197D9F70E9452
:1020C0002A03882309F1813049F480E060E04FEF72
:1020D00020E004E610E00E94820D15C0823049F431
:1020E00080E060E04FEF20E009E710E00E94820D01
:1020F0000AC0833041F480E060E04FEF20E000E967
:1021000010E00E94820DFFCF80E060E04FEF20E002
:1021100004E510E00E94820D0E94E60D8823B1F0D4
:10212000813049F488E060E04FEF20E006EA10E0FB
:102130000E94820D0AC0823041F488E060E04FEFD7
:1021400020E00BEB10E00E94820DFFCF88E060E002
:102150004FEF20E000ED10E00E94820D00E911E059
:102160000E94F20A813049F080E160E04FEF20E008
:1021700002EE10E00E94820DFFCF0E94690C80E108
:1021800097E2F8013197F1F70197D9F780E197E2EB
:10219000F8013197F1F70197D9F780E197E2F8015B
:1021A0003197F1F70197D9F780E197E2F80131977C
:1021B000F1F70197D9F780E197E2F8013197F1F74C
:1021C0000197D9F70E94E6078823B9F6C9CFD9D07D
:1021D00080F09F3740F491110EF4EBC060E070E0A6
:1021E00080E89FE3089526F01B16611D711D811D77
:1021F0007DC097C0ACD088F09F5790F0B92F992739
:10220000B751A0F0D1F0660F771F881F991F1AF001
:10221000BA95C9F712C0B13081F0CAD0B1E00895C3
:10222000C7C0672F782F8827B85F39F0B93FCCF344
:10223000869577956795B395D9F73EF490958095F7
:10224000709561957F4F8F4F9F4F0895E89409C017
:1022500097FB3EF490958095709561957F4F8F4FD9
:102260009F4F9923A9F0F92F96E9BB279395F695EF
:10227000879577956795B795F111F8CFFAF4BB0F6D
:1022800011F460FF1BC06F5F7F4F8F4F9F4F16C0D1
:10229000882311F096E911C0772321F09EE8872F5B
:1022A000762F05C0662371F096E8862F70E060E017
:1022B0002AF09A95660F771F881FDAF7880F969590
:1022C000879597F908955DD080F09F3740F491117C
:1022D0000EF06FC060E070E080E89FEB089526F498
:1022E0001B16611D711D811D01C01BC0882371F467
:1022F000772321F09850872B762F07C0662311F49F
:1023000099270DC09051862B70E060E02AF09A95D5
:10231000660F771F881FDAF7880F9695879597F9CC
:1023200008959F3F31F0915020F4879577956795F8
:10233000B795880F911D9695879597F9089557FD44
:102340009058440F551F59F05F3F71F04795880F23
:1023500097FB991F61F09F3F79F0879508951216BA
:1023600013061406551FF2CF4695F1DF08C0161666
:1023700017061806991FF1CF869571056105089417
:102380000895E5DFA0F0BEE7B91788F4BB279F38B2
:1023900060F41616B11D672F782F8827985FF7CF46
:1023A000869577956795B11D93959639C8F30895ED
:1023B000E894BB2766277727CB0197F90895629F9A
:1023C000D001739FF001829FE00DF11D649FE00D2D
:1023D000F11D929FF00D839FF00D749FF00D659F8E
:1023E000F00D9927729FB00DE11DF91F639FB00D8D
:1023F000E11DF91FBD01CF0111240895A1E21A2E9C
:10240000AA1BBB1BFD010DC0AA1FBB1FEE1FFF1F98
:10241000A217B307E407F50720F0A21BB30BE40BE8
:10242000F50B661F771F881F991F1A9469F760952F
:102430007095809590959B01AC01BD01CF010895E9
:04244000F894FFCF3E
:062444000002FFFFFFFF94
:00000001FF
